{
  "_format": "hh-sol-artifact-1",
  "contractName": "SecureMintingNFT",
  "sourceName": "contracts/SecureMintingNFT.sol",
  "abi": [
    {
      "inputs": [],
      "stateMutability": "nonpayable",
      "type": "constructor"
    },
    {
      "anonymous": false,
      "inputs": [
        {
          "indexed": true,
          "internalType": "address",
          "name": "owner",
          "type": "address"
        },
        {
          "indexed": true,
          "internalType": "address",
          "name": "approved",
          "type": "address"
        },
        {
          "indexed": true,
          "internalType": "uint256",
          "name": "tokenId",
          "type": "uint256"
        }
      ],
      "name": "Approval",
      "type": "event"
    },
    {
      "anonymous": false,
      "inputs": [
        {
          "indexed": true,
          "internalType": "address",
          "name": "owner",
          "type": "address"
        },
        {
          "indexed": true,
          "internalType": "address",
          "name": "operator",
          "type": "address"
        },
        {
          "indexed": false,
          "internalType": "bool",
          "name": "approved",
          "type": "bool"
        }
      ],
      "name": "ApprovalForAll",
      "type": "event"
    },
    {
      "anonymous": false,
      "inputs": [
        {
          "indexed": true,
          "internalType": "address",
          "name": "previousOwner",
          "type": "address"
        },
        {
          "indexed": true,
          "internalType": "address",
          "name": "newOwner",
          "type": "address"
        }
      ],
      "name": "OwnershipTransferred",
      "type": "event"
    },
    {
      "anonymous": false,
      "inputs": [
        {
          "indexed": false,
          "internalType": "address",
          "name": "account",
          "type": "address"
        }
      ],
      "name": "Paused",
      "type": "event"
    },
    {
      "anonymous": false,
      "inputs": [
        {
          "indexed": true,
          "internalType": "address",
          "name": "from",
          "type": "address"
        },
        {
          "indexed": true,
          "internalType": "address",
          "name": "to",
          "type": "address"
        },
        {
          "indexed": true,
          "internalType": "uint256",
          "name": "tokenId",
          "type": "uint256"
        }
      ],
      "name": "Transfer",
      "type": "event"
    },
    {
      "anonymous": false,
      "inputs": [
        {
          "indexed": false,
          "internalType": "address",
          "name": "account",
          "type": "address"
        }
      ],
      "name": "Unpaused",
      "type": "event"
    },
    {
      "inputs": [
        {
          "internalType": "address",
          "name": "to",
          "type": "address"
        },
        {
          "internalType": "uint256",
          "name": "tokenId",
          "type": "uint256"
        }
      ],
      "name": "approve",
      "outputs": [],
      "stateMutability": "nonpayable",
      "type": "function"
    },
    {
      "inputs": [
        {
          "internalType": "address",
          "name": "owner",
          "type": "address"
        }
      ],
      "name": "balanceOf",
      "outputs": [
        {
          "internalType": "uint256",
          "name": "",
          "type": "uint256"
        }
      ],
      "stateMutability": "view",
      "type": "function"
    },
    {
      "inputs": [
        {
          "internalType": "uint256",
          "name": "_tokenId",
          "type": "uint256"
        }
      ],
      "name": "exists",
      "outputs": [
        {
          "internalType": "bool",
          "name": "",
          "type": "bool"
        }
      ],
      "stateMutability": "view",
      "type": "function"
    },
    {
      "inputs": [
        {
          "internalType": "uint256",
          "name": "tokenId",
          "type": "uint256"
        }
      ],
      "name": "getApproved",
      "outputs": [
        {
          "internalType": "address",
          "name": "",
          "type": "address"
        }
      ],
      "stateMutability": "view",
      "type": "function"
    },
    {
      "inputs": [
        {
          "internalType": "address",
          "name": "owner",
          "type": "address"
        },
        {
          "internalType": "address",
          "name": "operator",
          "type": "address"
        }
      ],
      "name": "isApprovedForAll",
      "outputs": [
        {
          "internalType": "bool",
          "name": "",
          "type": "bool"
        }
      ],
      "stateMutability": "view",
      "type": "function"
    },
    {
      "inputs": [
        {
          "internalType": "uint256",
          "name": "_tokenId",
          "type": "uint256"
        },
        {
          "internalType": "bytes",
          "name": "_signature",
          "type": "bytes"
        }
      ],
      "name": "mint",
      "outputs": [],
      "stateMutability": "payable",
      "type": "function"
    },
    {
      "inputs": [],
      "name": "mintSigner",
      "outputs": [
        {
          "internalType": "address",
          "name": "",
          "type": "address"
        }
      ],
      "stateMutability": "view",
      "type": "function"
    },
    {
      "inputs": [],
      "name": "name",
      "outputs": [
        {
          "internalType": "string",
          "name": "",
          "type": "string"
        }
      ],
      "stateMutability": "view",
      "type": "function"
    },
    {
      "inputs": [],
      "name": "owner",
      "outputs": [
        {
          "internalType": "address",
          "name": "",
          "type": "address"
        }
      ],
      "stateMutability": "view",
      "type": "function"
    },
    {
      "inputs": [
        {
          "internalType": "uint256",
          "name": "tokenId",
          "type": "uint256"
        }
      ],
      "name": "ownerOf",
      "outputs": [
        {
          "internalType": "address",
          "name": "",
          "type": "address"
        }
      ],
      "stateMutability": "view",
      "type": "function"
    },
    {
      "inputs": [],
      "name": "paused",
      "outputs": [
        {
          "internalType": "bool",
          "name": "",
          "type": "bool"
        }
      ],
      "stateMutability": "view",
      "type": "function"
    },
    {
      "inputs": [],
      "name": "renounceOwnership",
      "outputs": [],
      "stateMutability": "nonpayable",
      "type": "function"
    },
    {
      "inputs": [
        {
          "internalType": "address",
          "name": "from",
          "type": "address"
        },
        {
          "internalType": "address",
          "name": "to",
          "type": "address"
        },
        {
          "internalType": "uint256",
          "name": "tokenId",
          "type": "uint256"
        }
      ],
      "name": "safeTransferFrom",
      "outputs": [],
      "stateMutability": "nonpayable",
      "type": "function"
    },
    {
      "inputs": [
        {
          "internalType": "address",
          "name": "from",
          "type": "address"
        },
        {
          "internalType": "address",
          "name": "to",
          "type": "address"
        },
        {
          "internalType": "uint256",
          "name": "tokenId",
          "type": "uint256"
        },
        {
          "internalType": "bytes",
          "name": "data",
          "type": "bytes"
        }
      ],
      "name": "safeTransferFrom",
      "outputs": [],
      "stateMutability": "nonpayable",
      "type": "function"
    },
    {
      "inputs": [
        {
          "internalType": "address",
          "name": "operator",
          "type": "address"
        },
        {
          "internalType": "bool",
          "name": "approved",
          "type": "bool"
        }
      ],
      "name": "setApprovalForAll",
      "outputs": [],
      "stateMutability": "nonpayable",
      "type": "function"
    },
    {
      "inputs": [
        {
          "internalType": "address",
          "name": "_signer",
          "type": "address"
        }
      ],
      "name": "setMintSigner",
      "outputs": [],
      "stateMutability": "nonpayable",
      "type": "function"
    },
    {
      "inputs": [
        {
          "internalType": "bytes4",
          "name": "interfaceId",
          "type": "bytes4"
        }
      ],
      "name": "supportsInterface",
      "outputs": [
        {
          "internalType": "bool",
          "name": "",
          "type": "bool"
        }
      ],
      "stateMutability": "view",
      "type": "function"
    },
    {
      "inputs": [],
      "name": "symbol",
      "outputs": [
        {
          "internalType": "string",
          "name": "",
          "type": "string"
        }
      ],
      "stateMutability": "view",
      "type": "function"
    },
    {
      "inputs": [
        {
          "internalType": "uint256",
          "name": "tokenId",
          "type": "uint256"
        }
      ],
      "name": "tokenURI",
      "outputs": [
        {
          "internalType": "string",
          "name": "",
          "type": "string"
        }
      ],
      "stateMutability": "view",
      "type": "function"
    },
    {
      "inputs": [
        {
          "internalType": "address",
          "name": "from",
          "type": "address"
        },
        {
          "internalType": "address",
          "name": "to",
          "type": "address"
        },
        {
          "internalType": "uint256",
          "name": "tokenId",
          "type": "uint256"
        }
      ],
      "name": "transferFrom",
      "outputs": [],
      "stateMutability": "nonpayable",
      "type": "function"
    },
    {
      "inputs": [
        {
          "internalType": "address",
          "name": "newOwner",
          "type": "address"
        }
      ],
      "name": "transferOwnership",
      "outputs": [],
      "stateMutability": "nonpayable",
      "type": "function"
    }
  ],
  "bytecode": "0x60806040523480156200001157600080fd5b506040518060400160405280601281526020017f536563757265204d696e74696e67204e465400000000000000000000000000008152506040518060400160405280600581526020017f534d4e4654000000000000000000000000000000000000000000000000000000815250816000908051906020019062000096929190620001c1565b508060019080519060200190620000af929190620001c1565b505050620000d2620000c6620000f360201b60201c565b620000fb60201b60201c565b6000600660146101000a81548160ff021916908315150217905550620002d6565b600033905090565b6000600660009054906101000a900473ffffffffffffffffffffffffffffffffffffffff16905081600660006101000a81548173ffffffffffffffffffffffffffffffffffffffff021916908373ffffffffffffffffffffffffffffffffffffffff1602179055508173ffffffffffffffffffffffffffffffffffffffff168173ffffffffffffffffffffffffffffffffffffffff167f8be0079c531659141344cd1fd0a4f28419497f9722a3daafe3b4186f6b6457e060405160405180910390a35050565b828054620001cf90620002a0565b90600052602060002090601f016020900481019282620001f357600085556200023f565b82601f106200020e57805160ff19168380011785556200023f565b828001600101855582156200023f579182015b828111156200023e57825182559160200191906001019062000221565b5b5090506200024e919062000252565b5090565b5b808211156200026d57600081600090555060010162000253565b5090565b7f4e487b7100000000000000000000000000000000000000000000000000000000600052602260045260246000fd5b60006002820490506001821680620002b957607f821691505b60208210811415620002d057620002cf62000271565b5b50919050565b61364b80620002e66000396000f3fe60806040526004361061012a5760003560e01c8063715018a6116100ab578063c87b56dd1161006f578063c87b56dd146103f0578063db7fd4081461042d578063e84a972814610449578063e985e9c514610472578063f17af48d146104af578063f2fde38b146104da5761012a565b8063715018a6146103315780638da5cb5b1461034857806395d89b4114610373578063a22cb4651461039e578063b88d4fde146103c75761012a565b806342842e0e116100f257806342842e0e146102265780634f558e791461024f5780635c975abb1461028c5780636352211e146102b757806370a08231146102f45761012a565b806301ffc9a71461012f57806306fdde031461016c578063081812fc14610197578063095ea7b3146101d457806323b872dd146101fd575b600080fd5b34801561013b57600080fd5b50610156600480360381019061015191906120ec565b610503565b6040516101639190612134565b60405180910390f35b34801561017857600080fd5b506101816105e5565b60405161018e91906121e8565b60405180910390f35b3480156101a357600080fd5b506101be60048036038101906101b99190612240565b610677565b6040516101cb91906122ae565b60405180910390f35b3480156101e057600080fd5b506101fb60048036038101906101f691906122f5565b6106bd565b005b34801561020957600080fd5b50610224600480360381019061021f9190612335565b6107d5565b005b34801561023257600080fd5b5061024d60048036038101906102489190612335565b610835565b005b34801561025b57600080fd5b5061027660048036038101906102719190612240565b610855565b6040516102839190612134565b60405180910390f35b34801561029857600080fd5b506102a1610867565b6040516102ae9190612134565b60405180910390f35b3480156102c357600080fd5b506102de60048036038101906102d99190612240565b61087e565b6040516102eb91906122ae565b60405180910390f35b34801561030057600080fd5b5061031b60048036038101906103169190612388565b610930565b60405161032891906123c4565b60405180910390f35b34801561033d57600080fd5b506103466109e8565b005b34801561035457600080fd5b5061035d6109fc565b60405161036a91906122ae565b60405180910390f35b34801561037f57600080fd5b50610388610a26565b60405161039591906121e8565b60405180910390f35b3480156103aa57600080fd5b506103c560048036038101906103c0919061240b565b610ab8565b005b3480156103d357600080fd5b506103ee60048036038101906103e99190612580565b610ace565b005b3480156103fc57600080fd5b5061041760048036038101906104129190612240565b610b30565b60405161042491906121e8565b60405180910390f35b61044760048036038101906104429190612603565b610b98565b005b34801561045557600080fd5b50610470600480360381019061046b9190612388565b610c47565b005b34801561047e57600080fd5b506104996004803603810190610494919061265f565b610c93565b6040516104a69190612134565b60405180910390f35b3480156104bb57600080fd5b506104c4610d27565b6040516104d191906122ae565b60405180910390f35b3480156104e657600080fd5b5061050160048036038101906104fc9190612388565b610d4d565b005b60007f80ac58cd000000000000000000000000000000000000000000000000000000007bffffffffffffffffffffffffffffffffffffffffffffffffffffffff1916827bffffffffffffffffffffffffffffffffffffffffffffffffffffffff191614806105ce57507f5b5e139f000000000000000000000000000000000000000000000000000000007bffffffffffffffffffffffffffffffffffffffffffffffffffffffff1916827bffffffffffffffffffffffffffffffffffffffffffffffffffffffff1916145b806105de57506105dd82610dd1565b5b9050919050565b6060600080546105f4906126ce565b80601f0160208091040260200160405190810160405280929190818152602001828054610620906126ce565b801561066d5780601f106106425761010080835404028352916020019161066d565b820191906000526020600020905b81548152906001019060200180831161065057829003601f168201915b5050505050905090565b600061068282610e3b565b6004600083815260200190815260200160002060009054906101000a900473ffffffffffffffffffffffffffffffffffffffff169050919050565b60006106c88261087e565b90508073ffffffffffffffffffffffffffffffffffffffff168373ffffffffffffffffffffffffffffffffffffffff161415610739576040517f08c379a000000000000000000000000000000000000000000000000000000000815260040161073090612772565b60405180910390fd5b8073ffffffffffffffffffffffffffffffffffffffff16610758610e86565b73ffffffffffffffffffffffffffffffffffffffff161480610787575061078681610781610e86565b610c93565b5b6107c6576040517f08c379a00000000000000000000000000000000000000000000000000000000081526004016107bd90612804565b60405180910390fd5b6107d08383610e8e565b505050565b6107e66107e0610e86565b82610f47565b610825576040517f08c379a000000000000000000000000000000000000000000000000000000000815260040161081c90612896565b60405180910390fd5b610830838383610fdc565b505050565b61085083838360405180602001604052806000815250610ace565b505050565b600061086082611243565b9050919050565b6000600660149054906101000a900460ff16905090565b6000806002600084815260200190815260200160002060009054906101000a900473ffffffffffffffffffffffffffffffffffffffff169050600073ffffffffffffffffffffffffffffffffffffffff168173ffffffffffffffffffffffffffffffffffffffff161415610927576040517f08c379a000000000000000000000000000000000000000000000000000000000815260040161091e90612902565b60405180910390fd5b80915050919050565b60008073ffffffffffffffffffffffffffffffffffffffff168273ffffffffffffffffffffffffffffffffffffffff1614156109a1576040517f08c379a000000000000000000000000000000000000000000000000000000000815260040161099890612994565b60405180910390fd5b600360008373ffffffffffffffffffffffffffffffffffffffff1673ffffffffffffffffffffffffffffffffffffffff168152602001908152602001600020549050919050565b6109f06112af565b6109fa600061132d565b565b6000600660009054906101000a900473ffffffffffffffffffffffffffffffffffffffff16905090565b606060018054610a35906126ce565b80601f0160208091040260200160405190810160405280929190818152602001828054610a61906126ce565b8015610aae5780601f10610a8357610100808354040283529160200191610aae565b820191906000526020600020905b815481529060010190602001808311610a9157829003601f168201915b5050505050905090565b610aca610ac3610e86565b83836113f3565b5050565b610adf610ad9610e86565b83610f47565b610b1e576040517f08c379a0000000000000000000000000000000000000000000000000000000008152600401610b1590612896565b60405180910390fd5b610b2a84848484611560565b50505050565b6060610b3b82610e3b565b6000610b456115bc565b90506000815111610b655760405180602001604052806000815250610b90565b80610b6f846115d3565b604051602001610b809291906129f0565b6040516020818303038152906040525b915050919050565b610ba0611734565b610ba982610855565b15610be9576040517f08c379a0000000000000000000000000000000000000000000000000000000008152600401610be090612a60565b60405180910390fd5b610bf3828261177e565b610c32576040517f08c379a0000000000000000000000000000000000000000000000000000000008152600401610c2990612acc565b60405180910390fd5b610c43610c3d610e86565b836117e2565b5050565b610c4f6112af565b80600760006101000a81548173ffffffffffffffffffffffffffffffffffffffff021916908373ffffffffffffffffffffffffffffffffffffffff16021790555050565b6000600560008473ffffffffffffffffffffffffffffffffffffffff1673ffffffffffffffffffffffffffffffffffffffff16815260200190815260200160002060008373ffffffffffffffffffffffffffffffffffffffff1673ffffffffffffffffffffffffffffffffffffffff16815260200190815260200160002060009054906101000a900460ff16905092915050565b600760009054906101000a900473ffffffffffffffffffffffffffffffffffffffff1681565b610d556112af565b600073ffffffffffffffffffffffffffffffffffffffff168173ffffffffffffffffffffffffffffffffffffffff161415610dc5576040517f08c379a0000000000000000000000000000000000000000000000000000000008152600401610dbc90612b5e565b60405180910390fd5b610dce8161132d565b50565b60007f01ffc9a7000000000000000000000000000000000000000000000000000000007bffffffffffffffffffffffffffffffffffffffffffffffffffffffff1916827bffffffffffffffffffffffffffffffffffffffffffffffffffffffff1916149050919050565b610e4481611243565b610e83576040517f08c379a0000000000000000000000000000000000000000000000000000000008152600401610e7a90612902565b60405180910390fd5b50565b600033905090565b816004600083815260200190815260200160002060006101000a81548173ffffffffffffffffffffffffffffffffffffffff021916908373ffffffffffffffffffffffffffffffffffffffff160217905550808273ffffffffffffffffffffffffffffffffffffffff16610f018361087e565b73ffffffffffffffffffffffffffffffffffffffff167f8c5be1e5ebec7d5bd14f71427d1e84f3dd0314c0f7b2291e5b200ac8c7c3b92560405160405180910390a45050565b600080610f538361087e565b90508073ffffffffffffffffffffffffffffffffffffffff168473ffffffffffffffffffffffffffffffffffffffff161480610f955750610f948185610c93565b5b80610fd357508373ffffffffffffffffffffffffffffffffffffffff16610fbb84610677565b73ffffffffffffffffffffffffffffffffffffffff16145b91505092915050565b8273ffffffffffffffffffffffffffffffffffffffff16610ffc8261087e565b73ffffffffffffffffffffffffffffffffffffffff1614611052576040517f08c379a000000000000000000000000000000000000000000000000000000000815260040161104990612bf0565b60405180910390fd5b600073ffffffffffffffffffffffffffffffffffffffff168273ffffffffffffffffffffffffffffffffffffffff1614156110c2576040517f08c379a00000000000000000000000000000000000000000000000000000000081526004016110b990612c82565b60405180910390fd5b6110cd838383611800565b6110d8600082610e8e565b6001600360008573ffffffffffffffffffffffffffffffffffffffff1673ffffffffffffffffffffffffffffffffffffffff16815260200190815260200160002060008282546111289190612cd1565b925050819055506001600360008473ffffffffffffffffffffffffffffffffffffffff1673ffffffffffffffffffffffffffffffffffffffff168152602001908152602001600020600082825461117f9190612d05565b92505081905550816002600083815260200190815260200160002060006101000a81548173ffffffffffffffffffffffffffffffffffffffff021916908373ffffffffffffffffffffffffffffffffffffffff160217905550808273ffffffffffffffffffffffffffffffffffffffff168473ffffffffffffffffffffffffffffffffffffffff167fddf252ad1be2c89b69c2b068fc378daa952ba7f163c4a11628f55a4df523b3ef60405160405180910390a461123e838383611805565b505050565b60008073ffffffffffffffffffffffffffffffffffffffff166002600084815260200190815260200160002060009054906101000a900473ffffffffffffffffffffffffffffffffffffffff1673ffffffffffffffffffffffffffffffffffffffff1614159050919050565b6112b7610e86565b73ffffffffffffffffffffffffffffffffffffffff166112d56109fc565b73ffffffffffffffffffffffffffffffffffffffff161461132b576040517f08c379a000000000000000000000000000000000000000000000000000000000815260040161132290612da7565b60405180910390fd5b565b6000600660009054906101000a900473ffffffffffffffffffffffffffffffffffffffff16905081600660006101000a81548173ffffffffffffffffffffffffffffffffffffffff021916908373ffffffffffffffffffffffffffffffffffffffff1602179055508173ffffffffffffffffffffffffffffffffffffffff168173ffffffffffffffffffffffffffffffffffffffff167f8be0079c531659141344cd1fd0a4f28419497f9722a3daafe3b4186f6b6457e060405160405180910390a35050565b8173ffffffffffffffffffffffffffffffffffffffff168373ffffffffffffffffffffffffffffffffffffffff161415611462576040517f08c379a000000000000000000000000000000000000000000000000000000000815260040161145990612e13565b60405180910390fd5b80600560008573ffffffffffffffffffffffffffffffffffffffff1673ffffffffffffffffffffffffffffffffffffffff16815260200190815260200160002060008473ffffffffffffffffffffffffffffffffffffffff1673ffffffffffffffffffffffffffffffffffffffff16815260200190815260200160002060006101000a81548160ff0219169083151502179055508173ffffffffffffffffffffffffffffffffffffffff168373ffffffffffffffffffffffffffffffffffffffff167f17307eab39ab6107e8899845ad3d59bd9653f200f220920489ca2b5937696c31836040516115539190612134565b60405180910390a3505050565b61156b848484610fdc565b6115778484848461180a565b6115b6576040517f08c379a00000000000000000000000000000000000000000000000000000000081526004016115ad90612ea5565b60405180910390fd5b50505050565b606060405180602001604052806000815250905090565b6060600082141561161b576040518060400160405280600181526020017f3000000000000000000000000000000000000000000000000000000000000000815250905061172f565b600082905060005b6000821461164d57808061163690612ec5565b915050600a826116469190612f3d565b9150611623565b60008167ffffffffffffffff81111561166957611668612455565b5b6040519080825280601f01601f19166020018201604052801561169b5781602001600182028036833780820191505090505b5090505b60008514611728576001826116b49190612cd1565b9150600a856116c39190612f6e565b60306116cf9190612d05565b60f81b8183815181106116e5576116e4612f9f565b5b60200101907effffffffffffffffffffffffffffffffffffffffffffffffffffffffffffff1916908160001a905350600a856117219190612f3d565b945061169f565b8093505050505b919050565b61173c610867565b1561177c576040517f08c379a00000000000000000000000000000000000000000000000000000000081526004016117739061301a565b60405180910390fd5b565b6000600760009054906101000a900473ffffffffffffffffffffffffffffffffffffffff1673ffffffffffffffffffffffffffffffffffffffff166117c384846119a1565b73ffffffffffffffffffffffffffffffffffffffff1614905092915050565b6117fc828260405180602001604052806000815250611a0d565b5050565b505050565b505050565b600061182b8473ffffffffffffffffffffffffffffffffffffffff16611a68565b15611994578373ffffffffffffffffffffffffffffffffffffffff1663150b7a02611854610e86565b8786866040518563ffffffff1660e01b8152600401611876949392919061308f565b602060405180830381600087803b15801561189057600080fd5b505af19250505080156118c157506040513d601f19601f820116820180604052508101906118be91906130f0565b60015b611944573d80600081146118f1576040519150601f19603f3d011682016040523d82523d6000602084013e6118f6565b606091505b5060008151141561193c576040517f08c379a000000000000000000000000000000000000000000000000000000000815260040161193390612ea5565b60405180910390fd5b805181602001fd5b63150b7a0260e01b7bffffffffffffffffffffffffffffffffffffffffffffffffffffffff1916817bffffffffffffffffffffffffffffffffffffffffffffffffffffffff191614915050611999565b600190505b949350505050565b6000611a05826119f7856040516020016119bb919061313e565b604051602081830303815290604052336040516020016119dc9291906131dd565b60405160208183030381529060405280519060200120611a8b565b611abb90919063ffffffff16565b905092915050565b611a178383611ae2565b611a24600084848461180a565b611a63576040517f08c379a0000000000000000000000000000000000000000000000000000000008152600401611a5a90612ea5565b60405180910390fd5b505050565b6000808273ffffffffffffffffffffffffffffffffffffffff163b119050919050565b600081604051602001611a9e919061327c565b604051602081830303815290604052805190602001209050919050565b6000806000611aca8585611cbc565b91509150611ad781611d3f565b819250505092915050565b600073ffffffffffffffffffffffffffffffffffffffff168273ffffffffffffffffffffffffffffffffffffffff161415611b52576040517f08c379a0000000000000000000000000000000000000000000000000000000008152600401611b49906132ee565b60405180910390fd5b611b5b81611243565b15611b9b576040517f08c379a0000000000000000000000000000000000000000000000000000000008152600401611b929061335a565b60405180910390fd5b611ba760008383611800565b6001600360008473ffffffffffffffffffffffffffffffffffffffff1673ffffffffffffffffffffffffffffffffffffffff1681526020019081526020016000206000828254611bf79190612d05565b92505081905550816002600083815260200190815260200160002060006101000a81548173ffffffffffffffffffffffffffffffffffffffff021916908373ffffffffffffffffffffffffffffffffffffffff160217905550808273ffffffffffffffffffffffffffffffffffffffff16600073ffffffffffffffffffffffffffffffffffffffff167fddf252ad1be2c89b69c2b068fc378daa952ba7f163c4a11628f55a4df523b3ef60405160405180910390a4611cb860008383611805565b5050565b600080604183511415611cfe5760008060006020860151925060408601519150606086015160001a9050611cf287828585611f14565b94509450505050611d38565b604083511415611d2f576000806020850151915060408501519050611d24868383612021565b935093505050611d38565b60006002915091505b9250929050565b60006004811115611d5357611d5261337a565b5b816004811115611d6657611d6561337a565b5b1415611d7157611f11565b60016004811115611d8557611d8461337a565b5b816004811115611d9857611d9761337a565b5b1415611dd9576040517f08c379a0000000000000000000000000000000000000000000000000000000008152600401611dd0906133f5565b60405180910390fd5b60026004811115611ded57611dec61337a565b5b816004811115611e0057611dff61337a565b5b1415611e41576040517f08c379a0000000000000000000000000000000000000000000000000000000008152600401611e3890613461565b60405180910390fd5b60036004811115611e5557611e5461337a565b5b816004811115611e6857611e6761337a565b5b1415611ea9576040517f08c379a0000000000000000000000000000000000000000000000000000000008152600401611ea0906134f3565b60405180910390fd5b600480811115611ebc57611ebb61337a565b5b816004811115611ecf57611ece61337a565b5b1415611f10576040517f08c379a0000000000000000000000000000000000000000000000000000000008152600401611f0790613585565b60405180910390fd5b5b50565b6000807f7fffffffffffffffffffffffffffffff5d576e7357a4501ddfe92f46681b20a08360001c1115611f4f576000600391509150612018565b601b8560ff1614158015611f675750601c8560ff1614155b15611f79576000600491509150612018565b600060018787878760405160008152602001604052604051611f9e94939291906135d0565b6020604051602081039080840390855afa158015611fc0573d6000803e3d6000fd5b505050602060405103519050600073ffffffffffffffffffffffffffffffffffffffff168173ffffffffffffffffffffffffffffffffffffffff16141561200f57600060019250925050612018565b80600092509250505b94509492505050565b60008060007f7fffffffffffffffffffffffffffffffffffffffffffffffffffffffffffffff60001b841690506000601b60ff8660001c901c6120649190612d05565b905061207287828885611f14565b935093505050935093915050565b6000604051905090565b600080fd5b600080fd5b60007fffffffff0000000000000000000000000000000000000000000000000000000082169050919050565b6120c981612094565b81146120d457600080fd5b50565b6000813590506120e6816120c0565b92915050565b6000602082840312156121025761210161208a565b5b6000612110848285016120d7565b91505092915050565b60008115159050919050565b61212e81612119565b82525050565b60006020820190506121496000830184612125565b92915050565b600081519050919050565b600082825260208201905092915050565b60005b8381101561218957808201518184015260208101905061216e565b83811115612198576000848401525b50505050565b6000601f19601f8301169050919050565b60006121ba8261214f565b6121c4818561215a565b93506121d481856020860161216b565b6121dd8161219e565b840191505092915050565b6000602082019050818103600083015261220281846121af565b905092915050565b6000819050919050565b61221d8161220a565b811461222857600080fd5b50565b60008135905061223a81612214565b92915050565b6000602082840312156122565761225561208a565b5b60006122648482850161222b565b91505092915050565b600073ffffffffffffffffffffffffffffffffffffffff82169050919050565b60006122988261226d565b9050919050565b6122a88161228d565b82525050565b60006020820190506122c3600083018461229f565b92915050565b6122d28161228d565b81146122dd57600080fd5b50565b6000813590506122ef816122c9565b92915050565b6000806040838503121561230c5761230b61208a565b5b600061231a858286016122e0565b925050602061232b8582860161222b565b9150509250929050565b60008060006060848603121561234e5761234d61208a565b5b600061235c868287016122e0565b935050602061236d868287016122e0565b925050604061237e8682870161222b565b9150509250925092565b60006020828403121561239e5761239d61208a565b5b60006123ac848285016122e0565b91505092915050565b6123be8161220a565b82525050565b60006020820190506123d960008301846123b5565b92915050565b6123e881612119565b81146123f357600080fd5b50565b600081359050612405816123df565b92915050565b600080604083850312156124225761242161208a565b5b6000612430858286016122e0565b9250506020612441858286016123f6565b9150509250929050565b600080fd5b600080fd5b7f4e487b7100000000000000000000000000000000000000000000000000000000600052604160045260246000fd5b61248d8261219e565b810181811067ffffffffffffffff821117156124ac576124ab612455565b5b80604052505050565b60006124bf612080565b90506124cb8282612484565b919050565b600067ffffffffffffffff8211156124eb576124ea612455565b5b6124f48261219e565b9050602081019050919050565b82818337600083830152505050565b600061252361251e846124d0565b6124b5565b90508281526020810184848401111561253f5761253e612450565b5b61254a848285612501565b509392505050565b600082601f8301126125675761256661244b565b5b8135612577848260208601612510565b91505092915050565b6000806000806080858703121561259a5761259961208a565b5b60006125a8878288016122e0565b94505060206125b9878288016122e0565b93505060406125ca8782880161222b565b925050606085013567ffffffffffffffff8111156125eb576125ea61208f565b5b6125f787828801612552565b91505092959194509250565b6000806040838503121561261a5761261961208a565b5b60006126288582860161222b565b925050602083013567ffffffffffffffff8111156126495761264861208f565b5b61265585828601612552565b9150509250929050565b600080604083850312156126765761267561208a565b5b6000612684858286016122e0565b9250506020612695858286016122e0565b9150509250929050565b7f4e487b7100000000000000000000000000000000000000000000000000000000600052602260045260246000fd5b600060028204905060018216806126e657607f821691505b602082108114156126fa576126f961269f565b5b50919050565b7f4552433732313a20617070726f76616c20746f2063757272656e74206f776e6560008201527f7200000000000000000000000000000000000000000000000000000000000000602082015250565b600061275c60218361215a565b915061276782612700565b604082019050919050565b6000602082019050818103600083015261278b8161274f565b9050919050565b7f4552433732313a20617070726f76652063616c6c6572206973206e6f7420746f60008201527f6b656e206f776e6572206e6f7220617070726f76656420666f7220616c6c0000602082015250565b60006127ee603e8361215a565b91506127f982612792565b604082019050919050565b6000602082019050818103600083015261281d816127e1565b9050919050565b7f4552433732313a2063616c6c6572206973206e6f7420746f6b656e206f776e6560008201527f72206e6f7220617070726f766564000000000000000000000000000000000000602082015250565b6000612880602e8361215a565b915061288b82612824565b604082019050919050565b600060208201905081810360008301526128af81612873565b9050919050565b7f4552433732313a20696e76616c696420746f6b656e2049440000000000000000600082015250565b60006128ec60188361215a565b91506128f7826128b6565b602082019050919050565b6000602082019050818103600083015261291b816128df565b9050919050565b7f4552433732313a2061646472657373207a65726f206973206e6f74206120766160008201527f6c6964206f776e65720000000000000000000000000000000000000000000000602082015250565b600061297e60298361215a565b915061298982612922565b604082019050919050565b600060208201905081810360008301526129ad81612971565b9050919050565b600081905092915050565b60006129ca8261214f565b6129d481856129b4565b93506129e481856020860161216b565b80840191505092915050565b60006129fc82856129bf565b9150612a0882846129bf565b91508190509392505050565b7f546f6b656e206578697374730000000000000000000000000000000000000000600082015250565b6000612a4a600c8361215a565b9150612a5582612a14565b602082019050919050565b60006020820190508181036000830152612a7981612a3d565b9050919050565b7f496e76616c6964207369676e6174757265000000000000000000000000000000600082015250565b6000612ab660118361215a565b9150612ac182612a80565b602082019050919050565b60006020820190508181036000830152612ae581612aa9565b9050919050565b7f4f776e61626c653a206e6577206f776e657220697320746865207a65726f206160008201527f6464726573730000000000000000000000000000000000000000000000000000602082015250565b6000612b4860268361215a565b9150612b5382612aec565b604082019050919050565b60006020820190508181036000830152612b7781612b3b565b9050919050565b7f4552433732313a207472616e736665722066726f6d20696e636f72726563742060008201527f6f776e6572000000000000000000000000000000000000000000000000000000602082015250565b6000612bda60258361215a565b9150612be582612b7e565b604082019050919050565b60006020820190508181036000830152612c0981612bcd565b9050919050565b7f4552433732313a207472616e7366657220746f20746865207a65726f2061646460008201527f7265737300000000000000000000000000000000000000000000000000000000602082015250565b6000612c6c60248361215a565b9150612c7782612c10565b604082019050919050565b60006020820190508181036000830152612c9b81612c5f565b9050919050565b7f4e487b7100000000000000000000000000000000000000000000000000000000600052601160045260246000fd5b6000612cdc8261220a565b9150612ce78361220a565b925082821015612cfa57612cf9612ca2565b5b828203905092915050565b6000612d108261220a565b9150612d1b8361220a565b9250827fffffffffffffffffffffffffffffffffffffffffffffffffffffffffffffffff03821115612d5057612d4f612ca2565b5b828201905092915050565b7f4f776e61626c653a2063616c6c6572206973206e6f7420746865206f776e6572600082015250565b6000612d9160208361215a565b9150612d9c82612d5b565b602082019050919050565b60006020820190508181036000830152612dc081612d84565b9050919050565b7f4552433732313a20617070726f766520746f2063616c6c657200000000000000600082015250565b6000612dfd60198361215a565b9150612e0882612dc7565b602082019050919050565b60006020820190508181036000830152612e2c81612df0565b9050919050565b7f4552433732313a207472616e7366657220746f206e6f6e20455243373231526560008201527f63656976657220696d706c656d656e7465720000000000000000000000000000602082015250565b6000612e8f60328361215a565b9150612e9a82612e33565b604082019050919050565b60006020820190508181036000830152612ebe81612e82565b9050919050565b6000612ed08261220a565b91507fffffffffffffffffffffffffffffffffffffffffffffffffffffffffffffffff821415612f0357612f02612ca2565b5b600182019050919050565b7f4e487b7100000000000000000000000000000000000000000000000000000000600052601260045260246000fd5b6000612f488261220a565b9150612f538361220a565b925082612f6357612f62612f0e565b5b828204905092915050565b6000612f798261220a565b9150612f848361220a565b925082612f9457612f93612f0e565b5b828206905092915050565b7f4e487b7100000000000000000000000000000000000000000000000000000000600052603260045260246000fd5b7f5061757361626c653a2070617573656400000000000000000000000000000000600082015250565b600061300460108361215a565b915061300f82612fce565b602082019050919050565b6000602082019050818103600083015261303381612ff7565b9050919050565b600081519050919050565b600082825260208201905092915050565b60006130618261303a565b61306b8185613045565b935061307b81856020860161216b565b6130848161219e565b840191505092915050565b60006080820190506130a4600083018761229f565b6130b1602083018661229f565b6130be60408301856123b5565b81810360608301526130d08184613056565b905095945050505050565b6000815190506130ea816120c0565b92915050565b6000602082840312156131065761310561208a565b5b6000613114848285016130db565b91505092915050565b6000819050919050565b6131386131338261220a565b61311d565b82525050565b600061314a8284613127565b60208201915081905092915050565b600081905092915050565b600061316f8261303a565b6131798185613159565b935061318981856020860161216b565b80840191505092915050565b60008160601b9050919050565b60006131ad82613195565b9050919050565b60006131bf826131a2565b9050919050565b6131d76131d28261228d565b6131b4565b82525050565b60006131e98285613164565b91506131f582846131c6565b6014820191508190509392505050565b7f19457468657265756d205369676e6564204d6573736167653a0a333200000000600082015250565b600061323b601c836129b4565b915061324682613205565b601c82019050919050565b6000819050919050565b6000819050919050565b61327661327182613251565b61325b565b82525050565b60006132878261322e565b91506132938284613265565b60208201915081905092915050565b7f4552433732313a206d696e7420746f20746865207a65726f2061646472657373600082015250565b60006132d860208361215a565b91506132e3826132a2565b602082019050919050565b60006020820190508181036000830152613307816132cb565b9050919050565b7f4552433732313a20746f6b656e20616c7265616479206d696e74656400000000600082015250565b6000613344601c8361215a565b915061334f8261330e565b602082019050919050565b6000602082019050818103600083015261337381613337565b9050919050565b7f4e487b7100000000000000000000000000000000000000000000000000000000600052602160045260246000fd5b7f45434453413a20696e76616c6964207369676e61747572650000000000000000600082015250565b60006133df60188361215a565b91506133ea826133a9565b602082019050919050565b6000602082019050818103600083015261340e816133d2565b9050919050565b7f45434453413a20696e76616c6964207369676e6174757265206c656e67746800600082015250565b600061344b601f8361215a565b915061345682613415565b602082019050919050565b6000602082019050818103600083015261347a8161343e565b9050919050565b7f45434453413a20696e76616c6964207369676e6174757265202773272076616c60008201527f7565000000000000000000000000000000000000000000000000000000000000602082015250565b60006134dd60228361215a565b91506134e882613481565b604082019050919050565b6000602082019050818103600083015261350c816134d0565b9050919050565b7f45434453413a20696e76616c6964207369676e6174757265202776272076616c60008201527f7565000000000000000000000000000000000000000000000000000000000000602082015250565b600061356f60228361215a565b915061357a82613513565b604082019050919050565b6000602082019050818103600083015261359e81613562565b9050919050565b6135ae81613251565b82525050565b600060ff82169050919050565b6135ca816135b4565b82525050565b60006080820190506135e560008301876135a5565b6135f260208301866135c1565b6135ff60408301856135a5565b61360c60608301846135a5565b9594505050505056fea2646970667358221220f9a3710a669067adf920ede2d4f272bfd4d263fbe8de2b1ed0ee7d21d08e8dce64736f6c63430008090033",
  "linkReferences": {},
  "deployedLinkReferences": {}
}