{
  "_format": "hh-sol-artifact-1",
  "contractName": "SecureMintingNFT",
  "sourceName": "contracts/SecureMintingNFT.sol",
  "abi": [
    {
      "inputs": [],
      "stateMutability": "nonpayable",
      "type": "constructor"
    },
    {
      "anonymous": false,
      "inputs": [
        {
          "indexed": true,
          "internalType": "address",
          "name": "owner",
          "type": "address"
        },
        {
          "indexed": true,
          "internalType": "address",
          "name": "approved",
          "type": "address"
        },
        {
          "indexed": true,
          "internalType": "uint256",
          "name": "tokenId",
          "type": "uint256"
        }
      ],
      "name": "Approval",
      "type": "event"
    },
    {
      "anonymous": false,
      "inputs": [
        {
          "indexed": true,
          "internalType": "address",
          "name": "owner",
          "type": "address"
        },
        {
          "indexed": true,
          "internalType": "address",
          "name": "operator",
          "type": "address"
        },
        {
          "indexed": false,
          "internalType": "bool",
          "name": "approved",
          "type": "bool"
        }
      ],
      "name": "ApprovalForAll",
      "type": "event"
    },
    {
      "anonymous": false,
      "inputs": [
        {
          "indexed": true,
          "internalType": "address",
          "name": "previousOwner",
          "type": "address"
        },
        {
          "indexed": true,
          "internalType": "address",
          "name": "newOwner",
          "type": "address"
        }
      ],
      "name": "OwnershipTransferred",
      "type": "event"
    },
    {
      "anonymous": false,
      "inputs": [
        {
          "indexed": false,
          "internalType": "address",
          "name": "account",
          "type": "address"
        }
      ],
      "name": "Paused",
      "type": "event"
    },
    {
      "anonymous": false,
      "inputs": [
        {
          "indexed": false,
          "internalType": "string",
          "name": "baseTokenURI",
          "type": "string"
        }
      ],
      "name": "SetBaseTokenURI",
      "type": "event"
    },
    {
      "anonymous": false,
      "inputs": [
        {
          "indexed": true,
          "internalType": "address",
          "name": "from",
          "type": "address"
        },
        {
          "indexed": true,
          "internalType": "address",
          "name": "to",
          "type": "address"
        },
        {
          "indexed": true,
          "internalType": "uint256",
          "name": "tokenId",
          "type": "uint256"
        }
      ],
      "name": "Transfer",
      "type": "event"
    },
    {
      "anonymous": false,
      "inputs": [
        {
          "indexed": false,
          "internalType": "address",
          "name": "account",
          "type": "address"
        }
      ],
      "name": "Unpaused",
      "type": "event"
    },
    {
      "inputs": [
        {
          "internalType": "address",
          "name": "to",
          "type": "address"
        },
        {
          "internalType": "uint256",
          "name": "tokenId",
          "type": "uint256"
        }
      ],
      "name": "approve",
      "outputs": [],
      "stateMutability": "nonpayable",
      "type": "function"
    },
    {
      "inputs": [
        {
          "internalType": "address",
          "name": "owner",
          "type": "address"
        }
      ],
      "name": "balanceOf",
      "outputs": [
        {
          "internalType": "uint256",
          "name": "",
          "type": "uint256"
        }
      ],
      "stateMutability": "view",
      "type": "function"
    },
    {
      "inputs": [],
      "name": "baseTokenURI",
      "outputs": [
        {
          "internalType": "string",
          "name": "",
          "type": "string"
        }
      ],
      "stateMutability": "view",
      "type": "function"
    },
    {
      "inputs": [
        {
          "internalType": "uint256",
          "name": "_tokenId",
          "type": "uint256"
        }
      ],
      "name": "exists",
      "outputs": [
        {
          "internalType": "bool",
          "name": "",
          "type": "bool"
        }
      ],
      "stateMutability": "view",
      "type": "function"
    },
    {
      "inputs": [
        {
          "internalType": "uint256",
          "name": "tokenId",
          "type": "uint256"
        }
      ],
      "name": "getApproved",
      "outputs": [
        {
          "internalType": "address",
          "name": "",
          "type": "address"
        }
      ],
      "stateMutability": "view",
      "type": "function"
    },
    {
      "inputs": [
        {
          "internalType": "address",
          "name": "owner",
          "type": "address"
        },
        {
          "internalType": "address",
          "name": "operator",
          "type": "address"
        }
      ],
      "name": "isApprovedForAll",
      "outputs": [
        {
          "internalType": "bool",
          "name": "",
          "type": "bool"
        }
      ],
      "stateMutability": "view",
      "type": "function"
    },
    {
      "inputs": [
        {
          "internalType": "uint256",
          "name": "_tokenId",
          "type": "uint256"
        },
        {
          "internalType": "bytes",
          "name": "_signature",
          "type": "bytes"
        }
      ],
      "name": "mint",
      "outputs": [],
      "stateMutability": "payable",
      "type": "function"
    },
    {
      "inputs": [],
      "name": "mintSigner",
      "outputs": [
        {
          "internalType": "address",
          "name": "",
          "type": "address"
        }
      ],
      "stateMutability": "view",
      "type": "function"
    },
    {
      "inputs": [],
      "name": "name",
      "outputs": [
        {
          "internalType": "string",
          "name": "",
          "type": "string"
        }
      ],
      "stateMutability": "view",
      "type": "function"
    },
    {
      "inputs": [],
      "name": "owner",
      "outputs": [
        {
          "internalType": "address",
          "name": "",
          "type": "address"
        }
      ],
      "stateMutability": "view",
      "type": "function"
    },
    {
      "inputs": [
        {
          "internalType": "uint256",
          "name": "tokenId",
          "type": "uint256"
        }
      ],
      "name": "ownerOf",
      "outputs": [
        {
          "internalType": "address",
          "name": "",
          "type": "address"
        }
      ],
      "stateMutability": "view",
      "type": "function"
    },
    {
      "inputs": [],
      "name": "paused",
      "outputs": [
        {
          "internalType": "bool",
          "name": "",
          "type": "bool"
        }
      ],
      "stateMutability": "view",
      "type": "function"
    },
    {
      "inputs": [],
      "name": "renounceOwnership",
      "outputs": [],
      "stateMutability": "nonpayable",
      "type": "function"
    },
    {
      "inputs": [
        {
          "internalType": "address",
          "name": "from",
          "type": "address"
        },
        {
          "internalType": "address",
          "name": "to",
          "type": "address"
        },
        {
          "internalType": "uint256",
          "name": "tokenId",
          "type": "uint256"
        }
      ],
      "name": "safeTransferFrom",
      "outputs": [],
      "stateMutability": "nonpayable",
      "type": "function"
    },
    {
      "inputs": [
        {
          "internalType": "address",
          "name": "from",
          "type": "address"
        },
        {
          "internalType": "address",
          "name": "to",
          "type": "address"
        },
        {
          "internalType": "uint256",
          "name": "tokenId",
          "type": "uint256"
        },
        {
          "internalType": "bytes",
          "name": "data",
          "type": "bytes"
        }
      ],
      "name": "safeTransferFrom",
      "outputs": [],
      "stateMutability": "nonpayable",
      "type": "function"
    },
    {
      "inputs": [
        {
          "internalType": "address",
          "name": "operator",
          "type": "address"
        },
        {
          "internalType": "bool",
          "name": "approved",
          "type": "bool"
        }
      ],
      "name": "setApprovalForAll",
      "outputs": [],
      "stateMutability": "nonpayable",
      "type": "function"
    },
    {
      "inputs": [
        {
          "internalType": "string",
          "name": "_baseTokenURI",
          "type": "string"
        }
      ],
      "name": "setBaseTokenURI",
      "outputs": [],
      "stateMutability": "nonpayable",
      "type": "function"
    },
    {
      "inputs": [
        {
          "internalType": "address",
          "name": "_signer",
          "type": "address"
        }
      ],
      "name": "setMintSigner",
      "outputs": [],
      "stateMutability": "nonpayable",
      "type": "function"
    },
    {
      "inputs": [
        {
          "internalType": "bytes4",
          "name": "interfaceId",
          "type": "bytes4"
        }
      ],
      "name": "supportsInterface",
      "outputs": [
        {
          "internalType": "bool",
          "name": "",
          "type": "bool"
        }
      ],
      "stateMutability": "view",
      "type": "function"
    },
    {
      "inputs": [],
      "name": "symbol",
      "outputs": [
        {
          "internalType": "string",
          "name": "",
          "type": "string"
        }
      ],
      "stateMutability": "view",
      "type": "function"
    },
    {
      "inputs": [
        {
          "internalType": "uint256",
          "name": "tokenId",
          "type": "uint256"
        }
      ],
      "name": "tokenURI",
      "outputs": [
        {
          "internalType": "string",
          "name": "",
          "type": "string"
        }
      ],
      "stateMutability": "view",
      "type": "function"
    },
    {
      "inputs": [
        {
          "internalType": "address",
          "name": "from",
          "type": "address"
        },
        {
          "internalType": "address",
          "name": "to",
          "type": "address"
        },
        {
          "internalType": "uint256",
          "name": "tokenId",
          "type": "uint256"
        }
      ],
      "name": "transferFrom",
      "outputs": [],
      "stateMutability": "nonpayable",
      "type": "function"
    },
    {
      "inputs": [
        {
          "internalType": "address",
          "name": "newOwner",
          "type": "address"
        }
      ],
      "name": "transferOwnership",
      "outputs": [],
      "stateMutability": "nonpayable",
      "type": "function"
    }
  ],
  "bytecode": "0x60806040523480156200001157600080fd5b506040518060400160405280601281526020017f536563757265204d696e74696e67204e465400000000000000000000000000008152506040518060400160405280600581526020017f534d4e4654000000000000000000000000000000000000000000000000000000815250816000908051906020019062000096929190620001c1565b508060019080519060200190620000af929190620001c1565b505050620000d2620000c6620000f360201b60201c565b620000fb60201b60201c565b6000600660146101000a81548160ff021916908315150217905550620002d6565b600033905090565b6000600660009054906101000a900473ffffffffffffffffffffffffffffffffffffffff16905081600660006101000a81548173ffffffffffffffffffffffffffffffffffffffff021916908373ffffffffffffffffffffffffffffffffffffffff1602179055508173ffffffffffffffffffffffffffffffffffffffff168173ffffffffffffffffffffffffffffffffffffffff167f8be0079c531659141344cd1fd0a4f28419497f9722a3daafe3b4186f6b6457e060405160405180910390a35050565b828054620001cf90620002a0565b90600052602060002090601f016020900481019282620001f357600085556200023f565b82601f106200020e57805160ff19168380011785556200023f565b828001600101855582156200023f579182015b828111156200023e57825182559160200191906001019062000221565b5b5090506200024e919062000252565b5090565b5b808211156200026d57600081600090555060010162000253565b5090565b7f4e487b7100000000000000000000000000000000000000000000000000000000600052602260045260246000fd5b60006002820490506001821680620002b957607f821691505b60208210811415620002d057620002cf62000271565b5b50919050565b6139a480620002e66000396000f3fe6080604052600436106101405760003560e01c8063715018a6116100b6578063d547cfb71161006f578063d547cfb71461046c578063db7fd40814610497578063e84a9728146104b3578063e985e9c5146104dc578063f17af48d14610519578063f2fde38b1461054457610140565b8063715018a6146103705780638da5cb5b1461038757806395d89b41146103b2578063a22cb465146103dd578063b88d4fde14610406578063c87b56dd1461042f57610140565b806330176e131161010857806330176e131461023c57806342842e0e146102655780634f558e791461028e5780635c975abb146102cb5780636352211e146102f657806370a082311461033357610140565b806301ffc9a71461014557806306fdde0314610182578063081812fc146101ad578063095ea7b3146101ea57806323b872dd14610213575b600080fd5b34801561015157600080fd5b5061016c6004803603810190610167919061235b565b61056d565b60405161017991906123a3565b60405180910390f35b34801561018e57600080fd5b5061019761064f565b6040516101a49190612457565b60405180910390f35b3480156101b957600080fd5b506101d460048036038101906101cf91906124af565b6106e1565b6040516101e1919061251d565b60405180910390f35b3480156101f657600080fd5b50610211600480360381019061020c9190612564565b610727565b005b34801561021f57600080fd5b5061023a600480360381019061023591906125a4565b61083f565b005b34801561024857600080fd5b50610263600480360381019061025e919061272c565b61089f565b005b34801561027157600080fd5b5061028c600480360381019061028791906125a4565b6108f8565b005b34801561029a57600080fd5b506102b560048036038101906102b091906124af565b610918565b6040516102c291906123a3565b60405180910390f35b3480156102d757600080fd5b506102e061092a565b6040516102ed91906123a3565b60405180910390f35b34801561030257600080fd5b5061031d600480360381019061031891906124af565b610941565b60405161032a919061251d565b60405180910390f35b34801561033f57600080fd5b5061035a60048036038101906103559190612775565b6109f3565b60405161036791906127b1565b60405180910390f35b34801561037c57600080fd5b50610385610aab565b005b34801561039357600080fd5b5061039c610abf565b6040516103a9919061251d565b60405180910390f35b3480156103be57600080fd5b506103c7610ae9565b6040516103d49190612457565b60405180910390f35b3480156103e957600080fd5b5061040460048036038101906103ff91906127f8565b610b7b565b005b34801561041257600080fd5b5061042d600480360381019061042891906128d9565b610b91565b005b34801561043b57600080fd5b50610456600480360381019061045191906124af565b610bf3565b6040516104639190612457565b60405180910390f35b34801561047857600080fd5b50610481610c5b565b60405161048e9190612457565b60405180910390f35b6104b160048036038101906104ac919061295c565b610ce9565b005b3480156104bf57600080fd5b506104da60048036038101906104d59190612775565b610d98565b005b3480156104e857600080fd5b5061050360048036038101906104fe91906129b8565b610de4565b60405161051091906123a3565b60405180910390f35b34801561052557600080fd5b5061052e610e78565b60405161053b919061251d565b60405180910390f35b34801561055057600080fd5b5061056b60048036038101906105669190612775565b610e9e565b005b60007f80ac58cd000000000000000000000000000000000000000000000000000000007bffffffffffffffffffffffffffffffffffffffffffffffffffffffff1916827bffffffffffffffffffffffffffffffffffffffffffffffffffffffff1916148061063857507f5b5e139f000000000000000000000000000000000000000000000000000000007bffffffffffffffffffffffffffffffffffffffffffffffffffffffff1916827bffffffffffffffffffffffffffffffffffffffffffffffffffffffff1916145b80610648575061064782610f22565b5b9050919050565b60606000805461065e90612a27565b80601f016020809104026020016040519081016040528092919081815260200182805461068a90612a27565b80156106d75780601f106106ac576101008083540402835291602001916106d7565b820191906000526020600020905b8154815290600101906020018083116106ba57829003601f168201915b5050505050905090565b60006106ec82610f8c565b6004600083815260200190815260200160002060009054906101000a900473ffffffffffffffffffffffffffffffffffffffff169050919050565b600061073282610941565b90508073ffffffffffffffffffffffffffffffffffffffff168373ffffffffffffffffffffffffffffffffffffffff1614156107a3576040517f08c379a000000000000000000000000000000000000000000000000000000000815260040161079a90612acb565b60405180910390fd5b8073ffffffffffffffffffffffffffffffffffffffff166107c2610fd7565b73ffffffffffffffffffffffffffffffffffffffff1614806107f157506107f0816107eb610fd7565b610de4565b5b610830576040517f08c379a000000000000000000000000000000000000000000000000000000000815260040161082790612b5d565b60405180910390fd5b61083a8383610fdf565b505050565b61085061084a610fd7565b82611098565b61088f576040517f08c379a000000000000000000000000000000000000000000000000000000000815260040161088690612bef565b60405180910390fd5b61089a83838361112d565b505050565b6108a7611394565b80600890805190602001906108bd92919061224c565b507f199e933997358e1789d8b56ea8c551befeb05ce2fe3fe506199f1230f5a591b4816040516108ed9190612457565b60405180910390a150565b61091383838360405180602001604052806000815250610b91565b505050565b600061092382611412565b9050919050565b6000600660149054906101000a900460ff16905090565b6000806002600084815260200190815260200160002060009054906101000a900473ffffffffffffffffffffffffffffffffffffffff169050600073ffffffffffffffffffffffffffffffffffffffff168173ffffffffffffffffffffffffffffffffffffffff1614156109ea576040517f08c379a00000000000000000000000000000000000000000000000000000000081526004016109e190612c5b565b60405180910390fd5b80915050919050565b60008073ffffffffffffffffffffffffffffffffffffffff168273ffffffffffffffffffffffffffffffffffffffff161415610a64576040517f08c379a0000000000000000000000000000000000000000000000000000000008152600401610a5b90612ced565b60405180910390fd5b600360008373ffffffffffffffffffffffffffffffffffffffff1673ffffffffffffffffffffffffffffffffffffffff168152602001908152602001600020549050919050565b610ab3611394565b610abd600061147e565b565b6000600660009054906101000a900473ffffffffffffffffffffffffffffffffffffffff16905090565b606060018054610af890612a27565b80601f0160208091040260200160405190810160405280929190818152602001828054610b2490612a27565b8015610b715780601f10610b4657610100808354040283529160200191610b71565b820191906000526020600020905b815481529060010190602001808311610b5457829003601f168201915b5050505050905090565b610b8d610b86610fd7565b8383611544565b5050565b610ba2610b9c610fd7565b83611098565b610be1576040517f08c379a0000000000000000000000000000000000000000000000000000000008152600401610bd890612bef565b60405180910390fd5b610bed848484846116b1565b50505050565b6060610bfe82610f8c565b6000610c0861170d565b90506000815111610c285760405180602001604052806000815250610c53565b80610c328461179f565b604051602001610c43929190612d49565b6040516020818303038152906040525b915050919050565b60088054610c6890612a27565b80601f0160208091040260200160405190810160405280929190818152602001828054610c9490612a27565b8015610ce15780601f10610cb657610100808354040283529160200191610ce1565b820191906000526020600020905b815481529060010190602001808311610cc457829003601f168201915b505050505081565b610cf1611900565b610cfa82610918565b15610d3a576040517f08c379a0000000000000000000000000000000000000000000000000000000008152600401610d3190612db9565b60405180910390fd5b610d44828261194a565b610d83576040517f08c379a0000000000000000000000000000000000000000000000000000000008152600401610d7a90612e25565b60405180910390fd5b610d94610d8e610fd7565b836119ae565b5050565b610da0611394565b80600760006101000a81548173ffffffffffffffffffffffffffffffffffffffff021916908373ffffffffffffffffffffffffffffffffffffffff16021790555050565b6000600560008473ffffffffffffffffffffffffffffffffffffffff1673ffffffffffffffffffffffffffffffffffffffff16815260200190815260200160002060008373ffffffffffffffffffffffffffffffffffffffff1673ffffffffffffffffffffffffffffffffffffffff16815260200190815260200160002060009054906101000a900460ff16905092915050565b600760009054906101000a900473ffffffffffffffffffffffffffffffffffffffff1681565b610ea6611394565b600073ffffffffffffffffffffffffffffffffffffffff168173ffffffffffffffffffffffffffffffffffffffff161415610f16576040517f08c379a0000000000000000000000000000000000000000000000000000000008152600401610f0d90612eb7565b60405180910390fd5b610f1f8161147e565b50565b60007f01ffc9a7000000000000000000000000000000000000000000000000000000007bffffffffffffffffffffffffffffffffffffffffffffffffffffffff1916827bffffffffffffffffffffffffffffffffffffffffffffffffffffffff1916149050919050565b610f9581611412565b610fd4576040517f08c379a0000000000000000000000000000000000000000000000000000000008152600401610fcb90612c5b565b60405180910390fd5b50565b600033905090565b816004600083815260200190815260200160002060006101000a81548173ffffffffffffffffffffffffffffffffffffffff021916908373ffffffffffffffffffffffffffffffffffffffff160217905550808273ffffffffffffffffffffffffffffffffffffffff1661105283610941565b73ffffffffffffffffffffffffffffffffffffffff167f8c5be1e5ebec7d5bd14f71427d1e84f3dd0314c0f7b2291e5b200ac8c7c3b92560405160405180910390a45050565b6000806110a483610941565b90508073ffffffffffffffffffffffffffffffffffffffff168473ffffffffffffffffffffffffffffffffffffffff1614806110e657506110e58185610de4565b5b8061112457508373ffffffffffffffffffffffffffffffffffffffff1661110c846106e1565b73ffffffffffffffffffffffffffffffffffffffff16145b91505092915050565b8273ffffffffffffffffffffffffffffffffffffffff1661114d82610941565b73ffffffffffffffffffffffffffffffffffffffff16146111a3576040517f08c379a000000000000000000000000000000000000000000000000000000000815260040161119a90612f49565b60405180910390fd5b600073ffffffffffffffffffffffffffffffffffffffff168273ffffffffffffffffffffffffffffffffffffffff161415611213576040517f08c379a000000000000000000000000000000000000000000000000000000000815260040161120a90612fdb565b60405180910390fd5b61121e8383836119cc565b611229600082610fdf565b6001600360008573ffffffffffffffffffffffffffffffffffffffff1673ffffffffffffffffffffffffffffffffffffffff1681526020019081526020016000206000828254611279919061302a565b925050819055506001600360008473ffffffffffffffffffffffffffffffffffffffff1673ffffffffffffffffffffffffffffffffffffffff16815260200190815260200160002060008282546112d0919061305e565b92505081905550816002600083815260200190815260200160002060006101000a81548173ffffffffffffffffffffffffffffffffffffffff021916908373ffffffffffffffffffffffffffffffffffffffff160217905550808273ffffffffffffffffffffffffffffffffffffffff168473ffffffffffffffffffffffffffffffffffffffff167fddf252ad1be2c89b69c2b068fc378daa952ba7f163c4a11628f55a4df523b3ef60405160405180910390a461138f8383836119d1565b505050565b61139c610fd7565b73ffffffffffffffffffffffffffffffffffffffff166113ba610abf565b73ffffffffffffffffffffffffffffffffffffffff1614611410576040517f08c379a000000000000000000000000000000000000000000000000000000000815260040161140790613100565b60405180910390fd5b565b60008073ffffffffffffffffffffffffffffffffffffffff166002600084815260200190815260200160002060009054906101000a900473ffffffffffffffffffffffffffffffffffffffff1673ffffffffffffffffffffffffffffffffffffffff1614159050919050565b6000600660009054906101000a900473ffffffffffffffffffffffffffffffffffffffff16905081600660006101000a81548173ffffffffffffffffffffffffffffffffffffffff021916908373ffffffffffffffffffffffffffffffffffffffff1602179055508173ffffffffffffffffffffffffffffffffffffffff168173ffffffffffffffffffffffffffffffffffffffff167f8be0079c531659141344cd1fd0a4f28419497f9722a3daafe3b4186f6b6457e060405160405180910390a35050565b8173ffffffffffffffffffffffffffffffffffffffff168373ffffffffffffffffffffffffffffffffffffffff1614156115b3576040517f08c379a00000000000000000000000000000000000000000000000000000000081526004016115aa9061316c565b60405180910390fd5b80600560008573ffffffffffffffffffffffffffffffffffffffff1673ffffffffffffffffffffffffffffffffffffffff16815260200190815260200160002060008473ffffffffffffffffffffffffffffffffffffffff1673ffffffffffffffffffffffffffffffffffffffff16815260200190815260200160002060006101000a81548160ff0219169083151502179055508173ffffffffffffffffffffffffffffffffffffffff168373ffffffffffffffffffffffffffffffffffffffff167f17307eab39ab6107e8899845ad3d59bd9653f200f220920489ca2b5937696c31836040516116a491906123a3565b60405180910390a3505050565b6116bc84848461112d565b6116c8848484846119d6565b611707576040517f08c379a00000000000000000000000000000000000000000000000000000000081526004016116fe906131fe565b60405180910390fd5b50505050565b60606008805461171c90612a27565b80601f016020809104026020016040519081016040528092919081815260200182805461174890612a27565b80156117955780601f1061176a57610100808354040283529160200191611795565b820191906000526020600020905b81548152906001019060200180831161177857829003601f168201915b5050505050905090565b606060008214156117e7576040518060400160405280600181526020017f300000000000000000000000000000000000000000000000000000000000000081525090506118fb565b600082905060005b600082146118195780806118029061321e565b915050600a826118129190613296565b91506117ef565b60008167ffffffffffffffff81111561183557611834612601565b5b6040519080825280601f01601f1916602001820160405280156118675781602001600182028036833780820191505090505b5090505b600085146118f457600182611880919061302a565b9150600a8561188f91906132c7565b603061189b919061305e565b60f81b8183815181106118b1576118b06132f8565b5b60200101907effffffffffffffffffffffffffffffffffffffffffffffffffffffffffffff1916908160001a905350600a856118ed9190613296565b945061186b565b8093505050505b919050565b61190861092a565b15611948576040517f08c379a000000000000000000000000000000000000000000000000000000000815260040161193f90613373565b60405180910390fd5b565b6000600760009054906101000a900473ffffffffffffffffffffffffffffffffffffffff1673ffffffffffffffffffffffffffffffffffffffff1661198f8484611b6d565b73ffffffffffffffffffffffffffffffffffffffff1614905092915050565b6119c8828260405180602001604052806000815250611bd9565b5050565b505050565b505050565b60006119f78473ffffffffffffffffffffffffffffffffffffffff16611c34565b15611b60578373ffffffffffffffffffffffffffffffffffffffff1663150b7a02611a20610fd7565b8786866040518563ffffffff1660e01b8152600401611a4294939291906133e8565b602060405180830381600087803b158015611a5c57600080fd5b505af1925050508015611a8d57506040513d601f19601f82011682018060405250810190611a8a9190613449565b60015b611b10573d8060008114611abd576040519150601f19603f3d011682016040523d82523d6000602084013e611ac2565b606091505b50600081511415611b08576040517f08c379a0000000000000000000000000000000000000000000000000000000008152600401611aff906131fe565b60405180910390fd5b805181602001fd5b63150b7a0260e01b7bffffffffffffffffffffffffffffffffffffffffffffffffffffffff1916817bffffffffffffffffffffffffffffffffffffffffffffffffffffffff191614915050611b65565b600190505b949350505050565b6000611bd182611bc385604051602001611b879190613497565b60405160208183030381529060405233604051602001611ba8929190613536565b60405160208183030381529060405280519060200120611c57565b611c8790919063ffffffff16565b905092915050565b611be38383611cae565b611bf060008484846119d6565b611c2f576040517f08c379a0000000000000000000000000000000000000000000000000000000008152600401611c26906131fe565b60405180910390fd5b505050565b6000808273ffffffffffffffffffffffffffffffffffffffff163b119050919050565b600081604051602001611c6a91906135d5565b604051602081830303815290604052805190602001209050919050565b6000806000611c968585611e88565b91509150611ca381611f0b565b819250505092915050565b600073ffffffffffffffffffffffffffffffffffffffff168273ffffffffffffffffffffffffffffffffffffffff161415611d1e576040517f08c379a0000000000000000000000000000000000000000000000000000000008152600401611d1590613647565b60405180910390fd5b611d2781611412565b15611d67576040517f08c379a0000000000000000000000000000000000000000000000000000000008152600401611d5e906136b3565b60405180910390fd5b611d73600083836119cc565b6001600360008473ffffffffffffffffffffffffffffffffffffffff1673ffffffffffffffffffffffffffffffffffffffff1681526020019081526020016000206000828254611dc3919061305e565b92505081905550816002600083815260200190815260200160002060006101000a81548173ffffffffffffffffffffffffffffffffffffffff021916908373ffffffffffffffffffffffffffffffffffffffff160217905550808273ffffffffffffffffffffffffffffffffffffffff16600073ffffffffffffffffffffffffffffffffffffffff167fddf252ad1be2c89b69c2b068fc378daa952ba7f163c4a11628f55a4df523b3ef60405160405180910390a4611e84600083836119d1565b5050565b600080604183511415611eca5760008060006020860151925060408601519150606086015160001a9050611ebe878285856120e0565b94509450505050611f04565b604083511415611efb576000806020850151915060408501519050611ef08683836121ed565b935093505050611f04565b60006002915091505b9250929050565b60006004811115611f1f57611f1e6136d3565b5b816004811115611f3257611f316136d3565b5b1415611f3d576120dd565b60016004811115611f5157611f506136d3565b5b816004811115611f6457611f636136d3565b5b1415611fa5576040517f08c379a0000000000000000000000000000000000000000000000000000000008152600401611f9c9061374e565b60405180910390fd5b60026004811115611fb957611fb86136d3565b5b816004811115611fcc57611fcb6136d3565b5b141561200d576040517f08c379a0000000000000000000000000000000000000000000000000000000008152600401612004906137ba565b60405180910390fd5b60036004811115612021576120206136d3565b5b816004811115612034576120336136d3565b5b1415612075576040517f08c379a000000000000000000000000000000000000000000000000000000000815260040161206c9061384c565b60405180910390fd5b600480811115612088576120876136d3565b5b81600481111561209b5761209a6136d3565b5b14156120dc576040517f08c379a00000000000000000000000000000000000000000000000000000000081526004016120d3906138de565b60405180910390fd5b5b50565b6000807f7fffffffffffffffffffffffffffffff5d576e7357a4501ddfe92f46681b20a08360001c111561211b5760006003915091506121e4565b601b8560ff16141580156121335750601c8560ff1614155b156121455760006004915091506121e4565b60006001878787876040516000815260200160405260405161216a9493929190613929565b6020604051602081039080840390855afa15801561218c573d6000803e3d6000fd5b505050602060405103519050600073ffffffffffffffffffffffffffffffffffffffff168173ffffffffffffffffffffffffffffffffffffffff1614156121db576000600192509250506121e4565b80600092509250505b94509492505050565b60008060007f7fffffffffffffffffffffffffffffffffffffffffffffffffffffffffffffff60001b841690506000601b60ff8660001c901c612230919061305e565b905061223e878288856120e0565b935093505050935093915050565b82805461225890612a27565b90600052602060002090601f01602090048101928261227a57600085556122c1565b82601f1061229357805160ff19168380011785556122c1565b828001600101855582156122c1579182015b828111156122c05782518255916020019190600101906122a5565b5b5090506122ce91906122d2565b5090565b5b808211156122eb5760008160009055506001016122d3565b5090565b6000604051905090565b600080fd5b600080fd5b60007fffffffff0000000000000000000000000000000000000000000000000000000082169050919050565b61233881612303565b811461234357600080fd5b50565b6000813590506123558161232f565b92915050565b600060208284031215612371576123706122f9565b5b600061237f84828501612346565b91505092915050565b60008115159050919050565b61239d81612388565b82525050565b60006020820190506123b86000830184612394565b92915050565b600081519050919050565b600082825260208201905092915050565b60005b838110156123f85780820151818401526020810190506123dd565b83811115612407576000848401525b50505050565b6000601f19601f8301169050919050565b6000612429826123be565b61243381856123c9565b93506124438185602086016123da565b61244c8161240d565b840191505092915050565b60006020820190508181036000830152612471818461241e565b905092915050565b6000819050919050565b61248c81612479565b811461249757600080fd5b50565b6000813590506124a981612483565b92915050565b6000602082840312156124c5576124c46122f9565b5b60006124d38482850161249a565b91505092915050565b600073ffffffffffffffffffffffffffffffffffffffff82169050919050565b6000612507826124dc565b9050919050565b612517816124fc565b82525050565b6000602082019050612532600083018461250e565b92915050565b612541816124fc565b811461254c57600080fd5b50565b60008135905061255e81612538565b92915050565b6000806040838503121561257b5761257a6122f9565b5b60006125898582860161254f565b925050602061259a8582860161249a565b9150509250929050565b6000806000606084860312156125bd576125bc6122f9565b5b60006125cb8682870161254f565b93505060206125dc8682870161254f565b92505060406125ed8682870161249a565b9150509250925092565b600080fd5b600080fd5b7f4e487b7100000000000000000000000000000000000000000000000000000000600052604160045260246000fd5b6126398261240d565b810181811067ffffffffffffffff8211171561265857612657612601565b5b80604052505050565b600061266b6122ef565b90506126778282612630565b919050565b600067ffffffffffffffff82111561269757612696612601565b5b6126a08261240d565b9050602081019050919050565b82818337600083830152505050565b60006126cf6126ca8461267c565b612661565b9050828152602081018484840111156126eb576126ea6125fc565b5b6126f68482856126ad565b509392505050565b600082601f830112612713576127126125f7565b5b81356127238482602086016126bc565b91505092915050565b600060208284031215612742576127416122f9565b5b600082013567ffffffffffffffff8111156127605761275f6122fe565b5b61276c848285016126fe565b91505092915050565b60006020828403121561278b5761278a6122f9565b5b60006127998482850161254f565b91505092915050565b6127ab81612479565b82525050565b60006020820190506127c660008301846127a2565b92915050565b6127d581612388565b81146127e057600080fd5b50565b6000813590506127f2816127cc565b92915050565b6000806040838503121561280f5761280e6122f9565b5b600061281d8582860161254f565b925050602061282e858286016127e3565b9150509250929050565b600067ffffffffffffffff82111561285357612852612601565b5b61285c8261240d565b9050602081019050919050565b600061287c61287784612838565b612661565b905082815260208101848484011115612898576128976125fc565b5b6128a38482856126ad565b509392505050565b600082601f8301126128c0576128bf6125f7565b5b81356128d0848260208601612869565b91505092915050565b600080600080608085870312156128f3576128f26122f9565b5b60006129018782880161254f565b94505060206129128782880161254f565b93505060406129238782880161249a565b925050606085013567ffffffffffffffff811115612944576129436122fe565b5b612950878288016128ab565b91505092959194509250565b60008060408385031215612973576129726122f9565b5b60006129818582860161249a565b925050602083013567ffffffffffffffff8111156129a2576129a16122fe565b5b6129ae858286016128ab565b9150509250929050565b600080604083850312156129cf576129ce6122f9565b5b60006129dd8582860161254f565b92505060206129ee8582860161254f565b9150509250929050565b7f4e487b7100000000000000000000000000000000000000000000000000000000600052602260045260246000fd5b60006002820490506001821680612a3f57607f821691505b60208210811415612a5357612a526129f8565b5b50919050565b7f4552433732313a20617070726f76616c20746f2063757272656e74206f776e6560008201527f7200000000000000000000000000000000000000000000000000000000000000602082015250565b6000612ab56021836123c9565b9150612ac082612a59565b604082019050919050565b60006020820190508181036000830152612ae481612aa8565b9050919050565b7f4552433732313a20617070726f76652063616c6c6572206973206e6f7420746f60008201527f6b656e206f776e6572206e6f7220617070726f76656420666f7220616c6c0000602082015250565b6000612b47603e836123c9565b9150612b5282612aeb565b604082019050919050565b60006020820190508181036000830152612b7681612b3a565b9050919050565b7f4552433732313a2063616c6c6572206973206e6f7420746f6b656e206f776e6560008201527f72206e6f7220617070726f766564000000000000000000000000000000000000602082015250565b6000612bd9602e836123c9565b9150612be482612b7d565b604082019050919050565b60006020820190508181036000830152612c0881612bcc565b9050919050565b7f4552433732313a20696e76616c696420746f6b656e2049440000000000000000600082015250565b6000612c456018836123c9565b9150612c5082612c0f565b602082019050919050565b60006020820190508181036000830152612c7481612c38565b9050919050565b7f4552433732313a2061646472657373207a65726f206973206e6f74206120766160008201527f6c6964206f776e65720000000000000000000000000000000000000000000000602082015250565b6000612cd76029836123c9565b9150612ce282612c7b565b604082019050919050565b60006020820190508181036000830152612d0681612cca565b9050919050565b600081905092915050565b6000612d23826123be565b612d2d8185612d0d565b9350612d3d8185602086016123da565b80840191505092915050565b6000612d558285612d18565b9150612d618284612d18565b91508190509392505050565b7f546f6b656e206578697374730000000000000000000000000000000000000000600082015250565b6000612da3600c836123c9565b9150612dae82612d6d565b602082019050919050565b60006020820190508181036000830152612dd281612d96565b9050919050565b7f496e76616c6964207369676e6174757265000000000000000000000000000000600082015250565b6000612e0f6011836123c9565b9150612e1a82612dd9565b602082019050919050565b60006020820190508181036000830152612e3e81612e02565b9050919050565b7f4f776e61626c653a206e6577206f776e657220697320746865207a65726f206160008201527f6464726573730000000000000000000000000000000000000000000000000000602082015250565b6000612ea16026836123c9565b9150612eac82612e45565b604082019050919050565b60006020820190508181036000830152612ed081612e94565b9050919050565b7f4552433732313a207472616e736665722066726f6d20696e636f72726563742060008201527f6f776e6572000000000000000000000000000000000000000000000000000000602082015250565b6000612f336025836123c9565b9150612f3e82612ed7565b604082019050919050565b60006020820190508181036000830152612f6281612f26565b9050919050565b7f4552433732313a207472616e7366657220746f20746865207a65726f2061646460008201527f7265737300000000000000000000000000000000000000000000000000000000602082015250565b6000612fc56024836123c9565b9150612fd082612f69565b604082019050919050565b60006020820190508181036000830152612ff481612fb8565b9050919050565b7f4e487b7100000000000000000000000000000000000000000000000000000000600052601160045260246000fd5b600061303582612479565b915061304083612479565b92508282101561305357613052612ffb565b5b828203905092915050565b600061306982612479565b915061307483612479565b9250827fffffffffffffffffffffffffffffffffffffffffffffffffffffffffffffffff038211156130a9576130a8612ffb565b5b828201905092915050565b7f4f776e61626c653a2063616c6c6572206973206e6f7420746865206f776e6572600082015250565b60006130ea6020836123c9565b91506130f5826130b4565b602082019050919050565b60006020820190508181036000830152613119816130dd565b9050919050565b7f4552433732313a20617070726f766520746f2063616c6c657200000000000000600082015250565b60006131566019836123c9565b915061316182613120565b602082019050919050565b6000602082019050818103600083015261318581613149565b9050919050565b7f4552433732313a207472616e7366657220746f206e6f6e20455243373231526560008201527f63656976657220696d706c656d656e7465720000000000000000000000000000602082015250565b60006131e86032836123c9565b91506131f38261318c565b604082019050919050565b60006020820190508181036000830152613217816131db565b9050919050565b600061322982612479565b91507fffffffffffffffffffffffffffffffffffffffffffffffffffffffffffffffff82141561325c5761325b612ffb565b5b600182019050919050565b7f4e487b7100000000000000000000000000000000000000000000000000000000600052601260045260246000fd5b60006132a182612479565b91506132ac83612479565b9250826132bc576132bb613267565b5b828204905092915050565b60006132d282612479565b91506132dd83612479565b9250826132ed576132ec613267565b5b828206905092915050565b7f4e487b7100000000000000000000000000000000000000000000000000000000600052603260045260246000fd5b7f5061757361626c653a2070617573656400000000000000000000000000000000600082015250565b600061335d6010836123c9565b915061336882613327565b602082019050919050565b6000602082019050818103600083015261338c81613350565b9050919050565b600081519050919050565b600082825260208201905092915050565b60006133ba82613393565b6133c4818561339e565b93506133d48185602086016123da565b6133dd8161240d565b840191505092915050565b60006080820190506133fd600083018761250e565b61340a602083018661250e565b61341760408301856127a2565b818103606083015261342981846133af565b905095945050505050565b6000815190506134438161232f565b92915050565b60006020828403121561345f5761345e6122f9565b5b600061346d84828501613434565b91505092915050565b6000819050919050565b61349161348c82612479565b613476565b82525050565b60006134a38284613480565b60208201915081905092915050565b600081905092915050565b60006134c882613393565b6134d281856134b2565b93506134e28185602086016123da565b80840191505092915050565b60008160601b9050919050565b6000613506826134ee565b9050919050565b6000613518826134fb565b9050919050565b61353061352b826124fc565b61350d565b82525050565b600061354282856134bd565b915061354e828461351f565b6014820191508190509392505050565b7f19457468657265756d205369676e6564204d6573736167653a0a333200000000600082015250565b6000613594601c83612d0d565b915061359f8261355e565b601c82019050919050565b6000819050919050565b6000819050919050565b6135cf6135ca826135aa565b6135b4565b82525050565b60006135e082613587565b91506135ec82846135be565b60208201915081905092915050565b7f4552433732313a206d696e7420746f20746865207a65726f2061646472657373600082015250565b60006136316020836123c9565b915061363c826135fb565b602082019050919050565b6000602082019050818103600083015261366081613624565b9050919050565b7f4552433732313a20746f6b656e20616c7265616479206d696e74656400000000600082015250565b600061369d601c836123c9565b91506136a882613667565b602082019050919050565b600060208201905081810360008301526136cc81613690565b9050919050565b7f4e487b7100000000000000000000000000000000000000000000000000000000600052602160045260246000fd5b7f45434453413a20696e76616c6964207369676e61747572650000000000000000600082015250565b60006137386018836123c9565b915061374382613702565b602082019050919050565b600060208201905081810360008301526137678161372b565b9050919050565b7f45434453413a20696e76616c6964207369676e6174757265206c656e67746800600082015250565b60006137a4601f836123c9565b91506137af8261376e565b602082019050919050565b600060208201905081810360008301526137d381613797565b9050919050565b7f45434453413a20696e76616c6964207369676e6174757265202773272076616c60008201527f7565000000000000000000000000000000000000000000000000000000000000602082015250565b60006138366022836123c9565b9150613841826137da565b604082019050919050565b6000602082019050818103600083015261386581613829565b9050919050565b7f45434453413a20696e76616c6964207369676e6174757265202776272076616c60008201527f7565000000000000000000000000000000000000000000000000000000000000602082015250565b60006138c86022836123c9565b91506138d38261386c565b604082019050919050565b600060208201905081810360008301526138f7816138bb565b9050919050565b613907816135aa565b82525050565b600060ff82169050919050565b6139238161390d565b82525050565b600060808201905061393e60008301876138fe565b61394b602083018661391a565b61395860408301856138fe565b61396560608301846138fe565b9594505050505056fea2646970667358221220be3a9674a284c0a888bad410b3f02538284bbfb6957c5c35df9e2f3e19a937c264736f6c63430008090033",
  "linkReferences": {},
  "deployedLinkReferences": {}
}